{
  "_format": "hh-sol-artifact-1",
  "contractName": "NFTMarketplace",
  "sourceName": "contracts/NFTMarketplace.sol",
  "abi": [
    {
      "anonymous": false,
      "inputs": [
        {
          "indexed": true,
          "internalType": "address",
          "name": "owner",
          "type": "address"
        },
        {
          "indexed": true,
          "internalType": "address",
          "name": "approved",
          "type": "address"
        },
        {
          "indexed": true,
          "internalType": "uint256",
          "name": "tokenId",
          "type": "uint256"
        }
      ],
      "name": "Approval",
      "type": "event"
    },
    {
      "anonymous": false,
      "inputs": [
        {
          "indexed": true,
          "internalType": "address",
          "name": "owner",
          "type": "address"
        },
        {
          "indexed": true,
          "internalType": "address",
          "name": "operator",
          "type": "address"
        },
        {
          "indexed": false,
          "internalType": "bool",
          "name": "approved",
          "type": "bool"
        }
      ],
      "name": "ApprovalForAll",
      "type": "event"
    },
    {
      "anonymous": false,
      "inputs": [
        {
          "indexed": true,
          "internalType": "uint256",
          "name": "tokenId",
          "type": "uint256"
        },
        {
          "indexed": false,
          "internalType": "address",
          "name": "seller",
          "type": "address"
        },
        {
          "indexed": false,
          "internalType": "address",
          "name": "owner",
          "type": "address"
        },
        {
          "indexed": false,
          "internalType": "uint256",
          "name": "price",
          "type": "uint256"
        },
        {
          "indexed": false,
          "internalType": "bool",
          "name": "sold",
          "type": "bool"
        }
      ],
      "name": "MarketItemCreated",
      "type": "event"
    },
    {
      "anonymous": false,
      "inputs": [
        {
          "indexed": true,
          "internalType": "address",
          "name": "from",
          "type": "address"
        },
        {
          "indexed": true,
          "internalType": "address",
          "name": "to",
          "type": "address"
        },
        {
          "indexed": true,
          "internalType": "uint256",
          "name": "tokenId",
          "type": "uint256"
        }
      ],
      "name": "Transfer",
      "type": "event"
    },
    {
      "inputs": [
        {
          "internalType": "address",
          "name": "to",
          "type": "address"
        },
        {
          "internalType": "uint256",
          "name": "tokenId",
          "type": "uint256"
        }
      ],
      "name": "approve",
      "outputs": [],
      "stateMutability": "nonpayable",
      "type": "function"
    },
    {
      "inputs": [
        {
          "internalType": "uint256",
          "name": "tokenId",
          "type": "uint256"
        }
      ],
      "name": "createMarketSale",
      "outputs": [],
      "stateMutability": "payable",
      "type": "function"
    },
    {
      "inputs": [
        {
          "internalType": "string",
          "name": "tokenURI",
          "type": "string"
        },
        {
          "internalType": "uint256",
          "name": "price",
          "type": "uint256"
        }
      ],
      "name": "createToken",
      "outputs": [
        {
          "internalType": "uint256",
          "name": "",
          "type": "uint256"
        }
      ],
      "stateMutability": "payable",
      "type": "function"
    },
    {
      "inputs": [
        {
          "internalType": "uint256",
          "name": "tokenId",
          "type": "uint256"
        },
        {
          "internalType": "uint256",
          "name": "price",
          "type": "uint256"
        }
      ],
      "name": "resellToken",
      "outputs": [],
      "stateMutability": "payable",
      "type": "function"
    },
    {
      "inputs": [
        {
          "internalType": "address",
          "name": "from",
          "type": "address"
        },
        {
          "internalType": "address",
          "name": "to",
          "type": "address"
        },
        {
          "internalType": "uint256",
          "name": "tokenId",
          "type": "uint256"
        }
      ],
      "name": "safeTransferFrom",
      "outputs": [],
      "stateMutability": "nonpayable",
      "type": "function"
    },
    {
      "inputs": [
        {
          "internalType": "address",
          "name": "from",
          "type": "address"
        },
        {
          "internalType": "address",
          "name": "to",
          "type": "address"
        },
        {
          "internalType": "uint256",
          "name": "tokenId",
          "type": "uint256"
        },
        {
          "internalType": "bytes",
          "name": "_data",
          "type": "bytes"
        }
      ],
      "name": "safeTransferFrom",
      "outputs": [],
      "stateMutability": "nonpayable",
      "type": "function"
    },
    {
      "inputs": [
        {
          "internalType": "address",
          "name": "operator",
          "type": "address"
        },
        {
          "internalType": "bool",
          "name": "approved",
          "type": "bool"
        }
      ],
      "name": "setApprovalForAll",
      "outputs": [],
      "stateMutability": "nonpayable",
      "type": "function"
    },
    {
      "inputs": [
        {
          "internalType": "address",
          "name": "from",
          "type": "address"
        },
        {
          "internalType": "address",
          "name": "to",
          "type": "address"
        },
        {
          "internalType": "uint256",
          "name": "tokenId",
          "type": "uint256"
        }
      ],
      "name": "transferFrom",
      "outputs": [],
      "stateMutability": "nonpayable",
      "type": "function"
    },
    {
      "inputs": [
        {
          "internalType": "uint256",
          "name": "_listingPrice",
          "type": "uint256"
        }
      ],
      "name": "updateListingPrice",
      "outputs": [],
      "stateMutability": "payable",
      "type": "function"
    },
    {
      "inputs": [],
      "stateMutability": "nonpayable",
      "type": "constructor"
    },
    {
      "inputs": [
        {
          "internalType": "address",
          "name": "owner",
          "type": "address"
        }
      ],
      "name": "balanceOf",
      "outputs": [
        {
          "internalType": "uint256",
          "name": "",
          "type": "uint256"
        }
      ],
      "stateMutability": "view",
      "type": "function"
    },
    {
      "inputs": [],
      "name": "fetchItemsListed",
      "outputs": [
        {
          "components": [
            {
              "internalType": "uint256",
              "name": "tokenId",
              "type": "uint256"
            },
            {
              "internalType": "address payable",
              "name": "seller",
              "type": "address"
            },
            {
              "internalType": "address payable",
              "name": "owner",
              "type": "address"
            },
            {
              "internalType": "uint256",
              "name": "price",
              "type": "uint256"
            },
            {
              "internalType": "bool",
              "name": "sold",
              "type": "bool"
            }
          ],
          "internalType": "struct NFTMarketplace.MarketItem[]",
          "name": "",
          "type": "tuple[]"
        }
      ],
      "stateMutability": "view",
      "type": "function"
    },
    {
      "inputs": [],
      "name": "fetchMarketItems",
      "outputs": [
        {
          "components": [
            {
              "internalType": "uint256",
              "name": "tokenId",
              "type": "uint256"
            },
            {
              "internalType": "address payable",
              "name": "seller",
              "type": "address"
            },
            {
              "internalType": "address payable",
              "name": "owner",
              "type": "address"
            },
            {
              "internalType": "uint256",
              "name": "price",
              "type": "uint256"
            },
            {
              "internalType": "bool",
              "name": "sold",
              "type": "bool"
            }
          ],
          "internalType": "struct NFTMarketplace.MarketItem[]",
          "name": "",
          "type": "tuple[]"
        }
      ],
      "stateMutability": "view",
      "type": "function"
    },
    {
      "inputs": [],
      "name": "fetchMyNFTs",
      "outputs": [
        {
          "components": [
            {
              "internalType": "uint256",
              "name": "tokenId",
              "type": "uint256"
            },
            {
              "internalType": "address payable",
              "name": "seller",
              "type": "address"
            },
            {
              "internalType": "address payable",
              "name": "owner",
              "type": "address"
            },
            {
              "internalType": "uint256",
              "name": "price",
              "type": "uint256"
            },
            {
              "internalType": "bool",
              "name": "sold",
              "type": "bool"
            }
          ],
          "internalType": "struct NFTMarketplace.MarketItem[]",
          "name": "",
          "type": "tuple[]"
        }
      ],
      "stateMutability": "view",
      "type": "function"
    },
    {
      "inputs": [
        {
          "internalType": "uint256",
          "name": "tokenId",
          "type": "uint256"
        }
      ],
      "name": "getApproved",
      "outputs": [
        {
          "internalType": "address",
          "name": "",
          "type": "address"
        }
      ],
      "stateMutability": "view",
      "type": "function"
    },
    {
      "inputs": [],
      "name": "getListingPrice",
      "outputs": [
        {
          "internalType": "uint256",
          "name": "",
          "type": "uint256"
        }
      ],
      "stateMutability": "view",
      "type": "function"
    },
    {
      "inputs": [
        {
          "internalType": "address",
          "name": "owner",
          "type": "address"
        },
        {
          "internalType": "address",
          "name": "operator",
          "type": "address"
        }
      ],
      "name": "isApprovedForAll",
      "outputs": [
        {
          "internalType": "bool",
          "name": "",
          "type": "bool"
        }
      ],
      "stateMutability": "view",
      "type": "function"
    },
    {
      "inputs": [],
      "name": "name",
      "outputs": [
        {
          "internalType": "string",
          "name": "",
          "type": "string"
        }
      ],
      "stateMutability": "view",
      "type": "function"
    },
    {
      "inputs": [
        {
          "internalType": "uint256",
          "name": "tokenId",
          "type": "uint256"
        }
      ],
      "name": "ownerOf",
      "outputs": [
        {
          "internalType": "address",
          "name": "",
          "type": "address"
        }
      ],
      "stateMutability": "view",
      "type": "function"
    },
    {
      "inputs": [
        {
          "internalType": "bytes4",
          "name": "interfaceId",
          "type": "bytes4"
        }
      ],
      "name": "supportsInterface",
      "outputs": [
        {
          "internalType": "bool",
          "name": "",
          "type": "bool"
        }
      ],
      "stateMutability": "view",
      "type": "function"
    },
    {
      "inputs": [],
      "name": "symbol",
      "outputs": [
        {
          "internalType": "string",
          "name": "",
          "type": "string"
        }
      ],
      "stateMutability": "view",
      "type": "function"
    },
    {
      "inputs": [
        {
          "internalType": "uint256",
          "name": "tokenId",
          "type": "uint256"
        }
      ],
      "name": "tokenURI",
      "outputs": [
        {
          "internalType": "string",
          "name": "",
          "type": "string"
        }
      ],
      "stateMutability": "view",
      "type": "function"
    }
  ],
  "bytecode": "608060405265e35fa931a000600a553480156200001b57600080fd5b506040518060400160405280600e81526020017f5065727572695820546f6b656e730000000000000000000000000000000000008152506040518060400160405280600381526020017f50695800000000000000000000000000000000000000000000000000000000008152508160009080519060200190620000a092919062000158565b508060019080519060200190620000b992919062000158565b50505033600b60006101000a81548173ffffffffffffffffffffffffffffffffffffffff021916908373ffffffffffffffffffffffffffffffffffffffff160217905550737872b95ad195f49fa9c9592db6b47edacd2727fe600760006101000a81548173ffffffffffffffffffffffffffffffffffffffff021916908373ffffffffffffffffffffffffffffffffffffffff1602179055506200026d565b828054620001669062000208565b90600052602060002090601f0160209004810192826200018a5760008555620001d6565b82601f10620001a557805160ff1916838001178555620001d6565b82800160010185558215620001d6579182015b82811115620001d5578251825591602001919060010190620001b8565b5b509050620001e59190620001e9565b5090565b5b8082111562000204576000816000905550600101620001ea565b5090565b600060028204905060018216806200022157607f821691505b602082108114156200023857620002376200023e565b5b50919050565b7f4e487b7100000000000000000000000000000000000000000000000000000000600052602260045260246000fd5b614489806200027d6000396000f3fe60806040526004361061012a5760003560e01c80636352211e116100ab578063ae677aa31161006f578063ae677aa3146103f9578063b88d4fde14610415578063be9af5361461043e578063c87b56dd1461045a578063e219fc7514610497578063e985e9c5146104b35761012a565b80636352211e146102fb57806370a082311461033857806372b3b6201461037557806395d89b41146103a5578063a22cb465146103d05761012a565b806312e85585116100f257806312e8558514610228578063202e37401461025357806323b872dd1461027e57806342842e0e146102a757806345f8fa80146102d05761012a565b806301ffc9a71461012f57806306fdde031461016c578063081812fc14610197578063095ea7b3146101d45780630f08efe0146101fd575b600080fd5b34801561013b57600080fd5b5061015660048036038101906101519190612f92565b6104f0565b60405161016391906136a3565b60405180910390f35b34801561017857600080fd5b506101816105d2565b60405161018e91906136be565b60405180910390f35b3480156101a357600080fd5b506101be60048036038101906101b99190613038565b610664565b6040516101cb919061359e565b60405180910390f35b3480156101e057600080fd5b506101fb60048036038101906101f69190612f2d565b6106e9565b005b34801561020957600080fd5b50610212610801565b60405161021f9190613681565b60405180910390f35b34801561023457600080fd5b5061023d610ab6565b60405161024a91906139a0565b60405180910390f35b34801561025f57600080fd5b50610268610ac0565b6040516102759190613681565b60405180910390f35b34801561028a57600080fd5b506102a560048036038101906102a09190612e27565b610dfa565b005b3480156102b357600080fd5b506102ce60048036038101906102c99190612e27565b610e5a565b005b3480156102dc57600080fd5b506102e5610e7a565b6040516102f29190613681565b60405180910390f35b34801561030757600080fd5b50610322600480360381019061031d9190613038565b6111b4565b60405161032f919061359e565b60405180910390f35b34801561034457600080fd5b5061035f600480360381019061035a9190612dc2565b611266565b60405161036c91906139a0565b60405180910390f35b61038f600480360381019061038a9190612fe4565b61131e565b60405161039c91906139a0565b60405180910390f35b3480156103b157600080fd5b506103ba611360565b6040516103c791906136be565b60405180910390f35b3480156103dc57600080fd5b506103f760048036038101906103f29190612ef1565b6113f2565b005b610413600480360381019061040e9190613038565b611408565b005b34801561042157600080fd5b5061043c60048036038101906104379190612e76565b6114a2565b005b61045860048036038101906104539190613038565b611504565b005b34801561046657600080fd5b50610481600480360381019061047c9190613038565b6117f4565b60405161048e91906136be565b60405180910390f35b6104b160048036038101906104ac9190613061565b611946565b005b3480156104bf57600080fd5b506104da60048036038101906104d59190612deb565b611b3b565b6040516104e791906136a3565b60405180910390f35b60007f80ac58cd000000000000000000000000000000000000000000000000000000007bffffffffffffffffffffffffffffffffffffffffffffffffffffffff1916827bffffffffffffffffffffffffffffffffffffffffffffffffffffffff191614806105bb57507f5b5e139f000000000000000000000000000000000000000000000000000000007bffffffffffffffffffffffffffffffffffffffffffffffffffffffff1916827bffffffffffffffffffffffffffffffffffffffffffffffffffffffff1916145b806105cb57506105ca82611bcf565b5b9050919050565b6060600080546105e190613c41565b80601f016020809104026020016040519081016040528092919081815260200182805461060d90613c41565b801561065a5780601f1061062f5761010080835404028352916020019161065a565b820191906000526020600020905b81548152906001019060200180831161063d57829003601f168201915b5050505050905090565b600061066f82611c39565b6106ae576040517f08c379a00000000000000000000000000000000000000000000000000000000081526004016106a5906138c0565b60405180910390fd5b6004600083815260200190815260200160002060009054906101000a900473ffffffffffffffffffffffffffffffffffffffff169050919050565b60006106f4826111b4565b90508073ffffffffffffffffffffffffffffffffffffffff168373ffffffffffffffffffffffffffffffffffffffff161415610765576040517f08c379a000000000000000000000000000000000000000000000000000000000815260040161075c90613900565b60405180910390fd5b8073ffffffffffffffffffffffffffffffffffffffff16610784611ca5565b73ffffffffffffffffffffffffffffffffffffffff1614806107b357506107b2816107ad611ca5565b611b3b565b5b6107f2576040517f08c379a00000000000000000000000000000000000000000000000000000000081526004016107e9906137c0565b60405180910390fd5b6107fc8383611cad565b505050565b6060600061080f6008611d66565b9050600061081d6009611d66565b6108276008611d66565b6108319190613b45565b90506000808267ffffffffffffffff811115610876577f4e487b7100000000000000000000000000000000000000000000000000000000600052604160045260246000fd5b6040519080825280602002602001820160405280156108af57816020015b61089c612b74565b8152602001906001900390816108945790505b50905060005b84811015610aab573073ffffffffffffffffffffffffffffffffffffffff16600c60006001846108e59190613abe565b815260200190815260200160002060020160009054906101000a900473ffffffffffffffffffffffffffffffffffffffff1673ffffffffffffffffffffffffffffffffffffffff161415610a985760006001826109429190613abe565b90506000600c60008381526020019081526020016000209050806040518060a0016040529081600082015481526020016001820160009054906101000a900473ffffffffffffffffffffffffffffffffffffffff1673ffffffffffffffffffffffffffffffffffffffff1673ffffffffffffffffffffffffffffffffffffffff1681526020016002820160009054906101000a900473ffffffffffffffffffffffffffffffffffffffff1673ffffffffffffffffffffffffffffffffffffffff1673ffffffffffffffffffffffffffffffffffffffff168152602001600382015481526020016004820160009054906101000a900460ff161515151581525050848681518110610a7b577f4e487b7100000000000000000000000000000000000000000000000000000000600052603260045260246000fd5b6020026020010181905250600185610a939190613abe565b945050505b8080610aa390613ca4565b9150506108b5565b508094505050505090565b6000600a54905090565b60606000610ace6008611d66565b905060008060005b83811015610b77573373ffffffffffffffffffffffffffffffffffffffff16600c6000600184610b069190613abe565b815260200190815260200160002060020160009054906101000a900473ffffffffffffffffffffffffffffffffffffffff1673ffffffffffffffffffffffffffffffffffffffff161415610b6457600183610b619190613abe565b92505b8080610b6f90613ca4565b915050610ad6565b5060008267ffffffffffffffff811115610bba577f4e487b7100000000000000000000000000000000000000000000000000000000600052604160045260246000fd5b604051908082528060200260200182016040528015610bf357816020015b610be0612b74565b815260200190600190039081610bd85790505b50905060005b84811015610def573373ffffffffffffffffffffffffffffffffffffffff16600c6000600184610c299190613abe565b815260200190815260200160002060020160009054906101000a900473ffffffffffffffffffffffffffffffffffffffff1673ffffffffffffffffffffffffffffffffffffffff161415610ddc576000600182610c869190613abe565b90506000600c60008381526020019081526020016000209050806040518060a0016040529081600082015481526020016001820160009054906101000a900473ffffffffffffffffffffffffffffffffffffffff1673ffffffffffffffffffffffffffffffffffffffff1673ffffffffffffffffffffffffffffffffffffffff1681526020016002820160009054906101000a900473ffffffffffffffffffffffffffffffffffffffff1673ffffffffffffffffffffffffffffffffffffffff1673ffffffffffffffffffffffffffffffffffffffff168152602001600382015481526020016004820160009054906101000a900460ff161515151581525050848681518110610dbf577f4e487b7100000000000000000000000000000000000000000000000000000000600052603260045260246000fd5b6020026020010181905250600185610dd79190613abe565b945050505b8080610de790613ca4565b915050610bf9565b508094505050505090565b610e0b610e05611ca5565b82611d74565b610e4a576040517f08c379a0000000000000000000000000000000000000000000000000000000008152600401610e4190613940565b60405180910390fd5b610e55838383611e52565b505050565b610e75838383604051806020016040528060008152506114a2565b505050565b60606000610e886008611d66565b905060008060005b83811015610f31573373ffffffffffffffffffffffffffffffffffffffff16600c6000600184610ec09190613abe565b815260200190815260200160002060010160009054906101000a900473ffffffffffffffffffffffffffffffffffffffff1673ffffffffffffffffffffffffffffffffffffffff161415610f1e57600183610f1b9190613abe565b92505b8080610f2990613ca4565b915050610e90565b5060008267ffffffffffffffff811115610f74577f4e487b7100000000000000000000000000000000000000000000000000000000600052604160045260246000fd5b604051908082528060200260200182016040528015610fad57816020015b610f9a612b74565b815260200190600190039081610f925790505b50905060005b848110156111a9573373ffffffffffffffffffffffffffffffffffffffff16600c6000600184610fe39190613abe565b815260200190815260200160002060010160009054906101000a900473ffffffffffffffffffffffffffffffffffffffff1673ffffffffffffffffffffffffffffffffffffffff1614156111965760006001826110409190613abe565b90506000600c60008381526020019081526020016000209050806040518060a0016040529081600082015481526020016001820160009054906101000a900473ffffffffffffffffffffffffffffffffffffffff1673ffffffffffffffffffffffffffffffffffffffff1673ffffffffffffffffffffffffffffffffffffffff1681526020016002820160009054906101000a900473ffffffffffffffffffffffffffffffffffffffff1673ffffffffffffffffffffffffffffffffffffffff1673ffffffffffffffffffffffffffffffffffffffff168152602001600382015481526020016004820160009054906101000a900460ff161515151581525050848681518110611179577f4e487b7100000000000000000000000000000000000000000000000000000000600052603260045260246000fd5b60200260200101819052506001856111919190613abe565b945050505b80806111a190613ca4565b915050610fb3565b508094505050505090565b6000806002600084815260200190815260200160002060009054906101000a900473ffffffffffffffffffffffffffffffffffffffff169050600073ffffffffffffffffffffffffffffffffffffffff168173ffffffffffffffffffffffffffffffffffffffff16141561125d576040517f08c379a000000000000000000000000000000000000000000000000000000000815260040161125490613800565b60405180910390fd5b80915050919050565b60008073ffffffffffffffffffffffffffffffffffffffff168273ffffffffffffffffffffffffffffffffffffffff1614156112d7576040517f08c379a00000000000000000000000000000000000000000000000000000000081526004016112ce906137e0565b60405180910390fd5b600360008373ffffffffffffffffffffffffffffffffffffffff1673ffffffffffffffffffffffffffffffffffffffff168152602001908152602001600020549050919050565b600061132a60086120b9565b60006113366008611d66565b905061134233826120cf565b61134c81856122a9565b611356818461231d565b8091505092915050565b60606001805461136f90613c41565b80601f016020809104026020016040519081016040528092919081815260200182805461139b90613c41565b80156113e85780601f106113bd576101008083540402835291602001916113e8565b820191906000526020600020905b8154815290600101906020018083116113cb57829003601f168201915b5050505050905090565b6114046113fd611ca5565b8383612520565b5050565b3373ffffffffffffffffffffffffffffffffffffffff16600b60009054906101000a900473ffffffffffffffffffffffffffffffffffffffff1673ffffffffffffffffffffffffffffffffffffffff1614611498576040517f08c379a000000000000000000000000000000000000000000000000000000000815260040161148f90613960565b60405180910390fd5b80600a8190555050565b6114b36114ad611ca5565b83611d74565b6114f2576040517f08c379a00000000000000000000000000000000000000000000000000000000081526004016114e990613940565b60405180910390fd5b6114fe8484848461268d565b50505050565b6000600c60008381526020019081526020016000206003015490506000600c600084815260200190815260200160002060010160009054906101000a900473ffffffffffffffffffffffffffffffffffffffff16905081341461159c576040517f08c379a000000000000000000000000000000000000000000000000000000000815260040161159390613840565b60405180910390fd5b33600c600085815260200190815260200160002060020160006101000a81548173ffffffffffffffffffffffffffffffffffffffff021916908373ffffffffffffffffffffffffffffffffffffffff1602179055506001600c600085815260200190815260200160002060040160006101000a81548160ff0219169083151502179055506000600c600085815260200190815260200160002060010160006101000a81548173ffffffffffffffffffffffffffffffffffffffff021916908373ffffffffffffffffffffffffffffffffffffffff16021790555061168060096120b9565b61168b303385611e52565b600760009054906101000a900473ffffffffffffffffffffffffffffffffffffffff1673ffffffffffffffffffffffffffffffffffffffff166323b872dd3330856040518463ffffffff1660e01b81526004016116ea939291906135b9565b602060405180830381600087803b15801561170457600080fd5b505af1158015611718573d6000803e3d6000fd5b505050506040513d601f19601f8201168201806040525081019061173c9190612f69565b50600b60009054906101000a900473ffffffffffffffffffffffffffffffffffffffff1673ffffffffffffffffffffffffffffffffffffffff166108fc600a549081150290604051600060405180830381858888f193505050501580156117a7573d6000803e3d6000fd5b508073ffffffffffffffffffffffffffffffffffffffff166108fc349081150290604051600060405180830381858888f193505050501580156117ee573d6000803e3d6000fd5b50505050565b60606117ff82611c39565b61183e576040517f08c379a000000000000000000000000000000000000000000000000000000000815260040161183590613880565b60405180910390fd5b600060066000848152602001908152602001600020805461185e90613c41565b80601f016020809104026020016040519081016040528092919081815260200182805461188a90613c41565b80156118d75780601f106118ac576101008083540402835291602001916118d7565b820191906000526020600020905b8154815290600101906020018083116118ba57829003601f168201915b5050505050905060006118e86126e9565b90506000815114156118fe578192505050611941565b60008251111561193357808260405160200161191b92919061357a565b60405160208183030381529060405292505050611941565b61193c84612700565b925050505b919050565b3373ffffffffffffffffffffffffffffffffffffffff16600c600084815260200190815260200160002060020160009054906101000a900473ffffffffffffffffffffffffffffffffffffffff1673ffffffffffffffffffffffffffffffffffffffff16146119ea576040517f08c379a00000000000000000000000000000000000000000000000000000000081526004016119e1906138a0565b60405180910390fd5b600a543414611a2e576040517f08c379a0000000000000000000000000000000000000000000000000000000008152600401611a2590613920565b60405180910390fd5b6000600c600084815260200190815260200160002060040160006101000a81548160ff02191690831515021790555080600c60008481526020019081526020016000206003018190555033600c600084815260200190815260200160002060010160006101000a81548173ffffffffffffffffffffffffffffffffffffffff021916908373ffffffffffffffffffffffffffffffffffffffff16021790555030600c600084815260200190815260200160002060020160006101000a81548173ffffffffffffffffffffffffffffffffffffffff021916908373ffffffffffffffffffffffffffffffffffffffff160217905550611b2c60096127a7565b611b37333084611e52565b5050565b6000600560008473ffffffffffffffffffffffffffffffffffffffff1673ffffffffffffffffffffffffffffffffffffffff16815260200190815260200160002060008373ffffffffffffffffffffffffffffffffffffffff1673ffffffffffffffffffffffffffffffffffffffff16815260200190815260200160002060009054906101000a900460ff16905092915050565b60007f01ffc9a7000000000000000000000000000000000000000000000000000000007bffffffffffffffffffffffffffffffffffffffffffffffffffffffff1916827bffffffffffffffffffffffffffffffffffffffffffffffffffffffff1916149050919050565b60008073ffffffffffffffffffffffffffffffffffffffff166002600084815260200190815260200160002060009054906101000a900473ffffffffffffffffffffffffffffffffffffffff1673ffffffffffffffffffffffffffffffffffffffff1614159050919050565b600033905090565b816004600083815260200190815260200160002060006101000a81548173ffffffffffffffffffffffffffffffffffffffff021916908373ffffffffffffffffffffffffffffffffffffffff160217905550808273ffffffffffffffffffffffffffffffffffffffff16611d20836111b4565b73ffffffffffffffffffffffffffffffffffffffff167f8c5be1e5ebec7d5bd14f71427d1e84f3dd0314c0f7b2291e5b200ac8c7c3b92560405160405180910390a45050565b600081600001549050919050565b6000611d7f82611c39565b611dbe576040517f08c379a0000000000000000000000000000000000000000000000000000000008152600401611db5906137a0565b60405180910390fd5b6000611dc9836111b4565b90508073ffffffffffffffffffffffffffffffffffffffff168473ffffffffffffffffffffffffffffffffffffffff161480611e3857508373ffffffffffffffffffffffffffffffffffffffff16611e2084610664565b73ffffffffffffffffffffffffffffffffffffffff16145b80611e495750611e488185611b3b565b5b91505092915050565b8273ffffffffffffffffffffffffffffffffffffffff16611e72826111b4565b73ffffffffffffffffffffffffffffffffffffffff1614611ec8576040517f08c379a0000000000000000000000000000000000000000000000000000000008152600401611ebf90613720565b60405180910390fd5b600073ffffffffffffffffffffffffffffffffffffffff168273ffffffffffffffffffffffffffffffffffffffff161415611f38576040517f08c379a0000000000000000000000000000000000000000000000000000000008152600401611f2f90613760565b60405180910390fd5b611f43838383612803565b611f4e600082611cad565b6001600360008573ffffffffffffffffffffffffffffffffffffffff1673ffffffffffffffffffffffffffffffffffffffff1681526020019081526020016000206000828254611f9e9190613b45565b925050819055506001600360008473ffffffffffffffffffffffffffffffffffffffff1673ffffffffffffffffffffffffffffffffffffffff1681526020019081526020016000206000828254611ff59190613abe565b92505081905550816002600083815260200190815260200160002060006101000a81548173ffffffffffffffffffffffffffffffffffffffff021916908373ffffffffffffffffffffffffffffffffffffffff160217905550808273ffffffffffffffffffffffffffffffffffffffff168473ffffffffffffffffffffffffffffffffffffffff167fddf252ad1be2c89b69c2b068fc378daa952ba7f163c4a11628f55a4df523b3ef60405160405180910390a46120b4838383612808565b505050565b6001816000016000828254019250508190555050565b600073ffffffffffffffffffffffffffffffffffffffff168273ffffffffffffffffffffffffffffffffffffffff16141561213f576040517f08c379a000000000000000000000000000000000000000000000000000000000815260040161213690613860565b60405180910390fd5b61214881611c39565b15612188576040517f08c379a000000000000000000000000000000000000000000000000000000000815260040161217f90613740565b60405180910390fd5b61219460008383612803565b6001600360008473ffffffffffffffffffffffffffffffffffffffff1673ffffffffffffffffffffffffffffffffffffffff16815260200190815260200160002060008282546121e49190613abe565b92505081905550816002600083815260200190815260200160002060006101000a81548173ffffffffffffffffffffffffffffffffffffffff021916908373ffffffffffffffffffffffffffffffffffffffff160217905550808273ffffffffffffffffffffffffffffffffffffffff16600073ffffffffffffffffffffffffffffffffffffffff167fddf252ad1be2c89b69c2b068fc378daa952ba7f163c4a11628f55a4df523b3ef60405160405180910390a46122a560008383612808565b5050565b6122b282611c39565b6122f1576040517f08c379a00000000000000000000000000000000000000000000000000000000081526004016122e890613820565b60405180910390fd5b80600660008481526020019081526020016000209080519060200190612318929190612bd1565b505050565b60008111612360576040517f08c379a000000000000000000000000000000000000000000000000000000000815260040161235790613980565b60405180910390fd5b600a5434146123a4576040517f08c379a000000000000000000000000000000000000000000000000000000000815260040161239b90613920565b60405180910390fd5b6040518060a001604052808381526020013373ffffffffffffffffffffffffffffffffffffffff1681526020013073ffffffffffffffffffffffffffffffffffffffff16815260200182815260200160001515815250600c60008481526020019081526020016000206000820151816000015560208201518160010160006101000a81548173ffffffffffffffffffffffffffffffffffffffff021916908373ffffffffffffffffffffffffffffffffffffffff16021790555060408201518160020160006101000a81548173ffffffffffffffffffffffffffffffffffffffff021916908373ffffffffffffffffffffffffffffffffffffffff1602179055506060820151816003015560808201518160040160006101000a81548160ff0219169083151502179055509050506124dd333084611e52565b817fb640004f1d14576d0c209e240cad0410e0d8c0c33a09375861fbadae2588a98d333084600060405161251494939291906135f0565b60405180910390a25050565b8173ffffffffffffffffffffffffffffffffffffffff168373ffffffffffffffffffffffffffffffffffffffff16141561258f576040517f08c379a000000000000000000000000000000000000000000000000000000000815260040161258690613780565b60405180910390fd5b80600560008573ffffffffffffffffffffffffffffffffffffffff1673ffffffffffffffffffffffffffffffffffffffff16815260200190815260200160002060008473ffffffffffffffffffffffffffffffffffffffff1673ffffffffffffffffffffffffffffffffffffffff16815260200190815260200160002060006101000a81548160ff0219169083151502179055508173ffffffffffffffffffffffffffffffffffffffff168373ffffffffffffffffffffffffffffffffffffffff167f17307eab39ab6107e8899845ad3d59bd9653f200f220920489ca2b5937696c318360405161268091906136a3565b60405180910390a3505050565b612698848484611e52565b6126a48484848461280d565b6126e3576040517f08c379a00000000000000000000000000000000000000000000000000000000081526004016126da90613700565b60405180910390fd5b50505050565b606060405180602001604052806000815250905090565b606061270b82611c39565b61274a576040517f08c379a0000000000000000000000000000000000000000000000000000000008152600401612741906138e0565b60405180910390fd5b60006127546126e9565b90506000815111612774576040518060200160405280600081525061279f565b8061277e846129a4565b60405160200161278f92919061357a565b6040516020818303038152906040525b915050919050565b600081600001549050600081116127f3576040517f08c379a00000000000000000000000000000000000000000000000000000000081526004016127ea906136e0565b60405180910390fd5b6001810382600001819055505050565b505050565b505050565b600061282e8473ffffffffffffffffffffffffffffffffffffffff16612b51565b15612997578373ffffffffffffffffffffffffffffffffffffffff1663150b7a02612857611ca5565b8786866040518563ffffffff1660e01b81526004016128799493929190613635565b602060405180830381600087803b15801561289357600080fd5b505af19250505080156128c457506040513d601f19601f820116820180604052508101906128c19190612fbb565b60015b612947573d80600081146128f4576040519150601f19603f3d011682016040523d82523d6000602084013e6128f9565b606091505b5060008151141561293f576040517f08c379a000000000000000000000000000000000000000000000000000000000815260040161293690613700565b60405180910390fd5b805181602001fd5b63150b7a0260e01b7bffffffffffffffffffffffffffffffffffffffffffffffffffffffff1916817bffffffffffffffffffffffffffffffffffffffffffffffffffffffff19161491505061299c565b600190505b949350505050565b606060008214156129ec576040518060400160405280600181526020017f30000000000000000000000000000000000000000000000000000000000000008152509050612b4c565b600082905060005b60008214612a1e578080612a0790613ca4565b915050600a82612a179190613b14565b91506129f4565b60008167ffffffffffffffff811115612a60577f4e487b7100000000000000000000000000000000000000000000000000000000600052604160045260246000fd5b6040519080825280601f01601f191660200182016040528015612a925781602001600182028036833780820191505090505b5090505b60008514612b4557600182612aab9190613b45565b9150600a85612aba9190613ced565b6030612ac69190613abe565b60f81b818381518110612b02577f4e487b7100000000000000000000000000000000000000000000000000000000600052603260045260246000fd5b60200101907effffffffffffffffffffffffffffffffffffffffffffffffffffffffffffff1916908160001a905350600a85612b3e9190613b14565b9450612a96565b8093505050505b919050565b6000808273ffffffffffffffffffffffffffffffffffffffff163b119050919050565b6040518060a0016040528060008152602001600073ffffffffffffffffffffffffffffffffffffffff168152602001600073ffffffffffffffffffffffffffffffffffffffff168152602001600081526020016000151581525090565b828054612bdd90613c41565b90600052602060002090601f016020900481019282612bff5760008555612c46565b82601f10612c1857805160ff1916838001178555612c46565b82800160010185558215612c46579182015b82811115612c45578251825591602001919060010190612c2a565b5b509050612c539190612c57565b5090565b5b80821115612c70576000816000905550600101612c58565b5090565b6000612c87612c82846139e0565b6139bb565b905082815260208101848484011115612c9f57600080fd5b612caa848285613bff565b509392505050565b6000612cc5612cc084613a11565b6139bb565b905082815260208101848484011115612cdd57600080fd5b612ce8848285613bff565b509392505050565b600081359050612cff816143f7565b92915050565b600081359050612d148161440e565b92915050565b600081519050612d298161440e565b92915050565b600081359050612d3e81614425565b92915050565b600081519050612d5381614425565b92915050565b600082601f830112612d6a57600080fd5b8135612d7a848260208601612c74565b91505092915050565b600082601f830112612d9457600080fd5b8135612da4848260208601612cb2565b91505092915050565b600081359050612dbc8161443c565b92915050565b600060208284031215612dd457600080fd5b6000612de284828501612cf0565b91505092915050565b60008060408385031215612dfe57600080fd5b6000612e0c85828601612cf0565b9250506020612e1d85828601612cf0565b9150509250929050565b600080600060608486031215612e3c57600080fd5b6000612e4a86828701612cf0565b9350506020612e5b86828701612cf0565b9250506040612e6c86828701612dad565b9150509250925092565b60008060008060808587031215612e8c57600080fd5b6000612e9a87828801612cf0565b9450506020612eab87828801612cf0565b9350506040612ebc87828801612dad565b925050606085013567ffffffffffffffff811115612ed957600080fd5b612ee587828801612d59565b91505092959194509250565b60008060408385031215612f0457600080fd5b6000612f1285828601612cf0565b9250506020612f2385828601612d05565b9150509250929050565b60008060408385031215612f4057600080fd5b6000612f4e85828601612cf0565b9250506020612f5f85828601612dad565b9150509250929050565b600060208284031215612f7b57600080fd5b6000612f8984828501612d1a565b91505092915050565b600060208284031215612fa457600080fd5b6000612fb284828501612d2f565b91505092915050565b600060208284031215612fcd57600080fd5b6000612fdb84828501612d44565b91505092915050565b60008060408385031215612ff757600080fd5b600083013567ffffffffffffffff81111561301157600080fd5b61301d85828601612d83565b925050602061302e85828601612dad565b9150509250929050565b60006020828403121561304a57600080fd5b600061305884828501612dad565b91505092915050565b6000806040838503121561307457600080fd5b600061308285828601612dad565b925050602061309385828601612dad565b9150509250929050565b60006130a983836134f4565b60a08301905092915050565b6130be81613b8b565b82525050565b6130cd81613b79565b82525050565b60006130de82613a52565b6130e88185613a80565b93506130f383613a42565b8060005b8381101561312457815161310b888261309d565b975061311683613a73565b9250506001810190506130f7565b5085935050505092915050565b61313a81613b9d565b82525050565b61314981613b9d565b82525050565b600061315a82613a5d565b6131648185613a91565b9350613174818560208601613c0e565b61317d81613dda565b840191505092915050565b600061319382613a68565b61319d8185613aa2565b93506131ad818560208601613c0e565b6131b681613dda565b840191505092915050565b60006131cc82613a68565b6131d68185613ab3565b93506131e6818560208601613c0e565b80840191505092915050565b60006131ff601b83613aa2565b915061320a82613deb565b602082019050919050565b6000613222603283613aa2565b915061322d82613e14565b604082019050919050565b6000613245602583613aa2565b915061325082613e63565b604082019050919050565b6000613268601c83613aa2565b915061327382613eb2565b602082019050919050565b600061328b602483613aa2565b915061329682613edb565b604082019050919050565b60006132ae601983613aa2565b91506132b982613f2a565b602082019050919050565b60006132d1602c83613aa2565b91506132dc82613f53565b604082019050919050565b60006132f4603883613aa2565b91506132ff82613fa2565b604082019050919050565b6000613317602a83613aa2565b915061332282613ff1565b604082019050919050565b600061333a602983613aa2565b915061334582614040565b604082019050919050565b600061335d602e83613aa2565b91506133688261408f565b604082019050919050565b6000613380604083613aa2565b915061338b826140de565b604082019050919050565b60006133a3602083613aa2565b91506133ae8261412d565b602082019050919050565b60006133c6603183613aa2565b91506133d182614156565b604082019050919050565b60006133e9602a83613aa2565b91506133f4826141a5565b604082019050919050565b600061340c602c83613aa2565b9150613417826141f4565b604082019050919050565b600061342f602f83613aa2565b915061343a82614243565b604082019050919050565b6000613452602183613aa2565b915061345d82614292565b604082019050919050565b6000613475602483613aa2565b9150613480826142e1565b604082019050919050565b6000613498603183613aa2565b91506134a382614330565b604082019050919050565b60006134bb603083613aa2565b91506134c68261437f565b604082019050919050565b60006134de601c83613aa2565b91506134e9826143ce565b602082019050919050565b60a08201600082015161350a600085018261355c565b50602082015161351d60208501826130b5565b50604082015161353060408501826130b5565b506060820151613543606085018261355c565b5060808201516135566080850182613131565b50505050565b61356581613bf5565b82525050565b61357481613bf5565b82525050565b600061358682856131c1565b915061359282846131c1565b91508190509392505050565b60006020820190506135b360008301846130c4565b92915050565b60006060820190506135ce60008301866130c4565b6135db60208301856130c4565b6135e8604083018461356b565b949350505050565b600060808201905061360560008301876130c4565b61361260208301866130c4565b61361f604083018561356b565b61362c6060830184613140565b95945050505050565b600060808201905061364a60008301876130c4565b61365760208301866130c4565b613664604083018561356b565b8181036060830152613676818461314f565b905095945050505050565b6000602082019050818103600083015261369b81846130d3565b905092915050565b60006020820190506136b86000830184613140565b92915050565b600060208201905081810360008301526136d88184613188565b905092915050565b600060208201905081810360008301526136f9816131f2565b9050919050565b6000602082019050818103600083015261371981613215565b9050919050565b6000602082019050818103600083015261373981613238565b9050919050565b600060208201905081810360008301526137598161325b565b9050919050565b600060208201905081810360008301526137798161327e565b9050919050565b60006020820190508181036000830152613799816132a1565b9050919050565b600060208201905081810360008301526137b9816132c4565b9050919050565b600060208201905081810360008301526137d9816132e7565b9050919050565b600060208201905081810360008301526137f98161330a565b9050919050565b600060208201905081810360008301526138198161332d565b9050919050565b6000602082019050818103600083015261383981613350565b9050919050565b6000602082019050818103600083015261385981613373565b9050919050565b6000602082019050818103600083015261387981613396565b9050919050565b60006020820190508181036000830152613899816133b9565b9050919050565b600060208201905081810360008301526138b9816133dc565b9050919050565b600060208201905081810360008301526138d9816133ff565b9050919050565b600060208201905081810360008301526138f981613422565b9050919050565b6000602082019050818103600083015261391981613445565b9050919050565b6000602082019050818103600083015261393981613468565b9050919050565b600060208201905081810360008301526139598161348b565b9050919050565b60006020820190508181036000830152613979816134ae565b9050919050565b60006020820190508181036000830152613999816134d1565b9050919050565b60006020820190506139b5600083018461356b565b92915050565b60006139c56139d6565b90506139d18282613c73565b919050565b6000604051905090565b600067ffffffffffffffff8211156139fb576139fa613dab565b5b613a0482613dda565b9050602081019050919050565b600067ffffffffffffffff821115613a2c57613a2b613dab565b5b613a3582613dda565b9050602081019050919050565b6000819050602082019050919050565b600081519050919050565b600081519050919050565b600081519050919050565b6000602082019050919050565b600082825260208201905092915050565b600082825260208201905092915050565b600082825260208201905092915050565b600081905092915050565b6000613ac982613bf5565b9150613ad483613bf5565b9250827fffffffffffffffffffffffffffffffffffffffffffffffffffffffffffffffff03821115613b0957613b08613d1e565b5b828201905092915050565b6000613b1f82613bf5565b9150613b2a83613bf5565b925082613b3a57613b39613d4d565b5b828204905092915050565b6000613b5082613bf5565b9150613b5b83613bf5565b925082821015613b6e57613b6d613d1e565b5b828203905092915050565b6000613b8482613bd5565b9050919050565b6000613b9682613bd5565b9050919050565b60008115159050919050565b60007fffffffff0000000000000000000000000000000000000000000000000000000082169050919050565b600073ffffffffffffffffffffffffffffffffffffffff82169050919050565b6000819050919050565b82818337600083830152505050565b60005b83811015613c2c578082015181840152602081019050613c11565b83811115613c3b576000848401525b50505050565b60006002820490506001821680613c5957607f821691505b60208210811415613c6d57613c6c613d7c565b5b50919050565b613c7c82613dda565b810181811067ffffffffffffffff82111715613c9b57613c9a613dab565b5b80604052505050565b6000613caf82613bf5565b91507fffffffffffffffffffffffffffffffffffffffffffffffffffffffffffffffff821415613ce257613ce1613d1e565b5b600182019050919050565b6000613cf882613bf5565b9150613d0383613bf5565b925082613d1357613d12613d4d565b5b828206905092915050565b7f4e487b7100000000000000000000000000000000000000000000000000000000600052601160045260246000fd5b7f4e487b7100000000000000000000000000000000000000000000000000000000600052601260045260246000fd5b7f4e487b7100000000000000000000000000000000000000000000000000000000600052602260045260246000fd5b7f4e487b7100000000000000000000000000000000000000000000000000000000600052604160045260246000fd5b6000601f19601f8301169050919050565b7f436f756e7465723a2064656372656d656e74206f766572666c6f770000000000600082015250565b7f4552433732313a207472616e7366657220746f206e6f6e20455243373231526560008201527f63656976657220696d706c656d656e7465720000000000000000000000000000602082015250565b7f4552433732313a207472616e736665722066726f6d20696e636f72726563742060008201527f6f776e6572000000000000000000000000000000000000000000000000000000602082015250565b7f4552433732313a20746f6b656e20616c7265616479206d696e74656400000000600082015250565b7f4552433732313a207472616e7366657220746f20746865207a65726f2061646460008201527f7265737300000000000000000000000000000000000000000000000000000000602082015250565b7f4552433732313a20617070726f766520746f2063616c6c657200000000000000600082015250565b7f4552433732313a206f70657261746f7220717565727920666f72206e6f6e657860008201527f697374656e7420746f6b656e0000000000000000000000000000000000000000602082015250565b7f4552433732313a20617070726f76652063616c6c6572206973206e6f74206f7760008201527f6e6572206e6f7220617070726f76656420666f7220616c6c0000000000000000602082015250565b7f4552433732313a2062616c616e636520717565727920666f7220746865207a6560008201527f726f206164647265737300000000000000000000000000000000000000000000602082015250565b7f4552433732313a206f776e657220717565727920666f72206e6f6e657869737460008201527f656e7420746f6b656e0000000000000000000000000000000000000000000000602082015250565b7f45524337323155524953746f726167653a2055524920736574206f66206e6f6e60008201527f6578697374656e7420746f6b656e000000000000000000000000000000000000602082015250565b7f506c65617365207375626d6974207468652061736b696e67207072696365206960008201527f6e206f7264657220746f20636f6d706c65746520746865207075726368617365602082015250565b7f4552433732313a206d696e7420746f20746865207a65726f2061646472657373600082015250565b7f45524337323155524953746f726167653a2055524920717565727920666f722060008201527f6e6f6e6578697374656e7420746f6b656e000000000000000000000000000000602082015250565b7f4f6e6c79206974656d206f776e65722063616e20706572666f726d207468697360008201527f206f7065726174696f6e00000000000000000000000000000000000000000000602082015250565b7f4552433732313a20617070726f76656420717565727920666f72206e6f6e657860008201527f697374656e7420746f6b656e0000000000000000000000000000000000000000602082015250565b7f4552433732314d657461646174613a2055524920717565727920666f72206e6f60008201527f6e6578697374656e7420746f6b656e0000000000000000000000000000000000602082015250565b7f4552433732313a20617070726f76616c20746f2063757272656e74206f776e6560008201527f7200000000000000000000000000000000000000000000000000000000000000602082015250565b7f5072696365206d75737420626520657175616c20746f206c697374696e67207060008201527f7269636500000000000000000000000000000000000000000000000000000000602082015250565b7f4552433732313a207472616e736665722063616c6c6572206973206e6f74206f60008201527f776e6572206e6f7220617070726f766564000000000000000000000000000000602082015250565b7f4f6e6c79206d61726b6574706c616365206f776e65722063616e20757064617460008201527f65206c697374696e672070726963652e00000000000000000000000000000000602082015250565b7f5072696365206d757374206265206174206c6561737420312077656900000000600082015250565b61440081613b79565b811461440b57600080fd5b50565b61441781613b9d565b811461442257600080fd5b50565b61442e81613ba9565b811461443957600080fd5b50565b61444581613bf5565b811461445057600080fd5b5056fea264697066735822122030441e0dae06320b6f430f10f128a0c1d78c28a112638ffb0a4dea6906cdab8564736f6c63430008040033",
  "deployedBytecode": "0x60806040526004361061012a5760003560e01c80636352211e116100ab578063ae677aa31161006f578063ae677aa3146103f9578063b88d4fde14610415578063be9af5361461043e578063c87b56dd1461045a578063e219fc7514610497578063e985e9c5146104b35761012a565b80636352211e146102fb57806370a082311461033857806372b3b6201461037557806395d89b41146103a5578063a22cb465146103d05761012a565b806312e85585116100f257806312e8558514610228578063202e37401461025357806323b872dd1461027e57806342842e0e146102a757806345f8fa80146102d05761012a565b806301ffc9a71461012f57806306fdde031461016c578063081812fc14610197578063095ea7b3146101d45780630f08efe0146101fd575b600080fd5b34801561013b57600080fd5b5061015660048036038101906101519190612ea2565b6104f0565b604051610163919061357c565b60405180910390f35b34801561017857600080fd5b506101816105d2565b60405161018e9190613597565b60405180910390f35b3480156101a357600080fd5b506101be60048036038101906101b99190612f48565b610664565b6040516101cb91906134ae565b60405180910390f35b3480156101e057600080fd5b506101fb60048036038101906101f69190612e66565b6106e9565b005b34801561020957600080fd5b50610212610801565b60405161021f919061355a565b60405180910390f35b34801561023457600080fd5b5061023d610ab6565b60405161024a9190613879565b60405180910390f35b34801561025f57600080fd5b50610268610ac0565b604051610275919061355a565b60405180910390f35b34801561028a57600080fd5b506102a560048036038101906102a09190612d60565b610dfa565b005b3480156102b357600080fd5b506102ce60048036038101906102c99190612d60565b610e5a565b005b3480156102dc57600080fd5b506102e5610e7a565b6040516102f2919061355a565b60405180910390f35b34801561030757600080fd5b50610322600480360381019061031d9190612f48565b6111b4565b60405161032f91906134ae565b60405180910390f35b34801561034457600080fd5b5061035f600480360381019061035a9190612cfb565b611266565b60405161036c9190613879565b60405180910390f35b61038f600480360381019061038a9190612ef4565b61131e565b60405161039c9190613879565b60405180910390f35b3480156103b157600080fd5b506103ba611360565b6040516103c79190613597565b60405180910390f35b3480156103dc57600080fd5b506103f760048036038101906103f29190612e2a565b6113f2565b005b610413600480360381019061040e9190612f48565b611408565b005b34801561042157600080fd5b5061043c60048036038101906104379190612daf565b6114a2565b005b61045860048036038101906104539190612f48565b611504565b005b34801561046657600080fd5b50610481600480360381019061047c9190612f48565b611742565b60405161048e9190613597565b60405180910390f35b6104b160048036038101906104ac9190612f71565b611894565b005b3480156104bf57600080fd5b506104da60048036038101906104d59190612d24565b611a89565b6040516104e7919061357c565b60405180910390f35b60007f80ac58cd000000000000000000000000000000000000000000000000000000007bffffffffffffffffffffffffffffffffffffffffffffffffffffffff1916827bffffffffffffffffffffffffffffffffffffffffffffffffffffffff191614806105bb57507f5b5e139f000000000000000000000000000000000000000000000000000000007bffffffffffffffffffffffffffffffffffffffffffffffffffffffff1916827bffffffffffffffffffffffffffffffffffffffffffffffffffffffff1916145b806105cb57506105ca82611b1d565b5b9050919050565b6060600080546105e190613b1a565b80601f016020809104026020016040519081016040528092919081815260200182805461060d90613b1a565b801561065a5780601f1061062f5761010080835404028352916020019161065a565b820191906000526020600020905b81548152906001019060200180831161063d57829003601f168201915b5050505050905090565b600061066f82611b87565b6106ae576040517f08c379a00000000000000000000000000000000000000000000000000000000081526004016106a590613799565b60405180910390fd5b6004600083815260200190815260200160002060009054906101000a900473ffffffffffffffffffffffffffffffffffffffff169050919050565b60006106f4826111b4565b90508073ffffffffffffffffffffffffffffffffffffffff168373ffffffffffffffffffffffffffffffffffffffff161415610765576040517f08c379a000000000000000000000000000000000000000000000000000000000815260040161075c906137d9565b60405180910390fd5b8073ffffffffffffffffffffffffffffffffffffffff16610784611bf3565b73ffffffffffffffffffffffffffffffffffffffff1614806107b357506107b2816107ad611bf3565b611a89565b5b6107f2576040517f08c379a00000000000000000000000000000000000000000000000000000000081526004016107e990613699565b60405180910390fd5b6107fc8383611bfb565b505050565b6060600061080f6007611cb4565b9050600061081d6008611cb4565b6108276007611cb4565b6108319190613a1e565b90506000808267ffffffffffffffff811115610876577f4e487b7100000000000000000000000000000000000000000000000000000000600052604160045260246000fd5b6040519080825280602002602001820160405280156108af57816020015b61089c612ac2565b8152602001906001900390816108945790505b50905060005b84811015610aab573073ffffffffffffffffffffffffffffffffffffffff16600b60006001846108e59190613997565b815260200190815260200160002060020160009054906101000a900473ffffffffffffffffffffffffffffffffffffffff1673ffffffffffffffffffffffffffffffffffffffff161415610a985760006001826109429190613997565b90506000600b60008381526020019081526020016000209050806040518060a0016040529081600082015481526020016001820160009054906101000a900473ffffffffffffffffffffffffffffffffffffffff1673ffffffffffffffffffffffffffffffffffffffff1673ffffffffffffffffffffffffffffffffffffffff1681526020016002820160009054906101000a900473ffffffffffffffffffffffffffffffffffffffff1673ffffffffffffffffffffffffffffffffffffffff1673ffffffffffffffffffffffffffffffffffffffff168152602001600382015481526020016004820160009054906101000a900460ff161515151581525050848681518110610a7b577f4e487b7100000000000000000000000000000000000000000000000000000000600052603260045260246000fd5b6020026020010181905250600185610a939190613997565b945050505b8080610aa390613b7d565b9150506108b5565b508094505050505090565b6000600954905090565b60606000610ace6007611cb4565b905060008060005b83811015610b77573373ffffffffffffffffffffffffffffffffffffffff16600b6000600184610b069190613997565b815260200190815260200160002060020160009054906101000a900473ffffffffffffffffffffffffffffffffffffffff1673ffffffffffffffffffffffffffffffffffffffff161415610b6457600183610b619190613997565b92505b8080610b6f90613b7d565b915050610ad6565b5060008267ffffffffffffffff811115610bba577f4e487b7100000000000000000000000000000000000000000000000000000000600052604160045260246000fd5b604051908082528060200260200182016040528015610bf357816020015b610be0612ac2565b815260200190600190039081610bd85790505b50905060005b84811015610def573373ffffffffffffffffffffffffffffffffffffffff16600b6000600184610c299190613997565b815260200190815260200160002060020160009054906101000a900473ffffffffffffffffffffffffffffffffffffffff1673ffffffffffffffffffffffffffffffffffffffff161415610ddc576000600182610c869190613997565b90506000600b60008381526020019081526020016000209050806040518060a0016040529081600082015481526020016001820160009054906101000a900473ffffffffffffffffffffffffffffffffffffffff1673ffffffffffffffffffffffffffffffffffffffff1673ffffffffffffffffffffffffffffffffffffffff1681526020016002820160009054906101000a900473ffffffffffffffffffffffffffffffffffffffff1673ffffffffffffffffffffffffffffffffffffffff1673ffffffffffffffffffffffffffffffffffffffff168152602001600382015481526020016004820160009054906101000a900460ff161515151581525050848681518110610dbf577f4e487b7100000000000000000000000000000000000000000000000000000000600052603260045260246000fd5b6020026020010181905250600185610dd79190613997565b945050505b8080610de790613b7d565b915050610bf9565b508094505050505090565b610e0b610e05611bf3565b82611cc2565b610e4a576040517f08c379a0000000000000000000000000000000000000000000000000000000008152600401610e4190613819565b60405180910390fd5b610e55838383611da0565b505050565b610e75838383604051806020016040528060008152506114a2565b505050565b60606000610e886007611cb4565b905060008060005b83811015610f31573373ffffffffffffffffffffffffffffffffffffffff16600b6000600184610ec09190613997565b815260200190815260200160002060010160009054906101000a900473ffffffffffffffffffffffffffffffffffffffff1673ffffffffffffffffffffffffffffffffffffffff161415610f1e57600183610f1b9190613997565b92505b8080610f2990613b7d565b915050610e90565b5060008267ffffffffffffffff811115610f74577f4e487b7100000000000000000000000000000000000000000000000000000000600052604160045260246000fd5b604051908082528060200260200182016040528015610fad57816020015b610f9a612ac2565b815260200190600190039081610f925790505b50905060005b848110156111a9573373ffffffffffffffffffffffffffffffffffffffff16600b6000600184610fe39190613997565b815260200190815260200160002060010160009054906101000a900473ffffffffffffffffffffffffffffffffffffffff1673ffffffffffffffffffffffffffffffffffffffff1614156111965760006001826110409190613997565b90506000600b60008381526020019081526020016000209050806040518060a0016040529081600082015481526020016001820160009054906101000a900473ffffffffffffffffffffffffffffffffffffffff1673ffffffffffffffffffffffffffffffffffffffff1673ffffffffffffffffffffffffffffffffffffffff1681526020016002820160009054906101000a900473ffffffffffffffffffffffffffffffffffffffff1673ffffffffffffffffffffffffffffffffffffffff1673ffffffffffffffffffffffffffffffffffffffff168152602001600382015481526020016004820160009054906101000a900460ff161515151581525050848681518110611179577f4e487b7100000000000000000000000000000000000000000000000000000000600052603260045260246000fd5b60200260200101819052506001856111919190613997565b945050505b80806111a190613b7d565b915050610fb3565b508094505050505090565b6000806002600084815260200190815260200160002060009054906101000a900473ffffffffffffffffffffffffffffffffffffffff169050600073ffffffffffffffffffffffffffffffffffffffff168173ffffffffffffffffffffffffffffffffffffffff16141561125d576040517f08c379a0000000000000000000000000000000000000000000000000000000008152600401611254906136d9565b60405180910390fd5b80915050919050565b60008073ffffffffffffffffffffffffffffffffffffffff168273ffffffffffffffffffffffffffffffffffffffff1614156112d7576040517f08c379a00000000000000000000000000000000000000000000000000000000081526004016112ce906136b9565b60405180910390fd5b600360008373ffffffffffffffffffffffffffffffffffffffff1673ffffffffffffffffffffffffffffffffffffffff168152602001908152602001600020549050919050565b600061132a6007612007565b60006113366007611cb4565b9050611342338261201d565b61134c81856121f7565b611356818461226b565b8091505092915050565b60606001805461136f90613b1a565b80601f016020809104026020016040519081016040528092919081815260200182805461139b90613b1a565b80156113e85780601f106113bd576101008083540402835291602001916113e8565b820191906000526020600020905b8154815290600101906020018083116113cb57829003601f168201915b5050505050905090565b6114046113fd611bf3565b838361246e565b5050565b3373ffffffffffffffffffffffffffffffffffffffff16600a60009054906101000a900473ffffffffffffffffffffffffffffffffffffffff1673ffffffffffffffffffffffffffffffffffffffff1614611498576040517f08c379a000000000000000000000000000000000000000000000000000000000815260040161148f90613839565b60405180910390fd5b8060098190555050565b6114b36114ad611bf3565b83611cc2565b6114f2576040517f08c379a00000000000000000000000000000000000000000000000000000000081526004016114e990613819565b60405180910390fd5b6114fe848484846125db565b50505050565b6000600b60008381526020019081526020016000206003015490506000600b600084815260200190815260200160002060010160009054906101000a900473ffffffffffffffffffffffffffffffffffffffff16905081341461159c576040517f08c379a000000000000000000000000000000000000000000000000000000000815260040161159390613719565b60405180910390fd5b33600b600085815260200190815260200160002060020160006101000a81548173ffffffffffffffffffffffffffffffffffffffff021916908373ffffffffffffffffffffffffffffffffffffffff1602179055506001600b600085815260200190815260200160002060040160006101000a81548160ff0219169083151502179055506000600b600085815260200190815260200160002060010160006101000a81548173ffffffffffffffffffffffffffffffffffffffff021916908373ffffffffffffffffffffffffffffffffffffffff1602179055506116806008612007565b61168b303385611da0565b600a60009054906101000a900473ffffffffffffffffffffffffffffffffffffffff1673ffffffffffffffffffffffffffffffffffffffff166108fc6009549081150290604051600060405180830381858888f193505050501580156116f5573d6000803e3d6000fd5b508073ffffffffffffffffffffffffffffffffffffffff166108fc349081150290604051600060405180830381858888f1935050505015801561173c573d6000803e3d6000fd5b50505050565b606061174d82611b87565b61178c576040517f08c379a000000000000000000000000000000000000000000000000000000000815260040161178390613759565b60405180910390fd5b60006006600084815260200190815260200160002080546117ac90613b1a565b80601f01602080910402602001604051908101604052809291908181526020018280546117d890613b1a565b80156118255780601f106117fa57610100808354040283529160200191611825565b820191906000526020600020905b81548152906001019060200180831161180857829003601f168201915b505050505090506000611836612637565b905060008151141561184c57819250505061188f565b60008251111561188157808260405160200161186992919061348a565b6040516020818303038152906040529250505061188f565b61188a8461264e565b925050505b919050565b3373ffffffffffffffffffffffffffffffffffffffff16600b600084815260200190815260200160002060020160009054906101000a900473ffffffffffffffffffffffffffffffffffffffff1673ffffffffffffffffffffffffffffffffffffffff1614611938576040517f08c379a000000000000000000000000000000000000000000000000000000000815260040161192f90613779565b60405180910390fd5b600954341461197c576040517f08c379a0000000000000000000000000000000000000000000000000000000008152600401611973906137f9565b60405180910390fd5b6000600b600084815260200190815260200160002060040160006101000a81548160ff02191690831515021790555080600b60008481526020019081526020016000206003018190555033600b600084815260200190815260200160002060010160006101000a81548173ffffffffffffffffffffffffffffffffffffffff021916908373ffffffffffffffffffffffffffffffffffffffff16021790555030600b600084815260200190815260200160002060020160006101000a81548173ffffffffffffffffffffffffffffffffffffffff021916908373ffffffffffffffffffffffffffffffffffffffff160217905550611a7a60086126f5565b611a85333084611da0565b5050565b6000600560008473ffffffffffffffffffffffffffffffffffffffff1673ffffffffffffffffffffffffffffffffffffffff16815260200190815260200160002060008373ffffffffffffffffffffffffffffffffffffffff1673ffffffffffffffffffffffffffffffffffffffff16815260200190815260200160002060009054906101000a900460ff16905092915050565b60007f01ffc9a7000000000000000000000000000000000000000000000000000000007bffffffffffffffffffffffffffffffffffffffffffffffffffffffff1916827bffffffffffffffffffffffffffffffffffffffffffffffffffffffff1916149050919050565b60008073ffffffffffffffffffffffffffffffffffffffff166002600084815260200190815260200160002060009054906101000a900473ffffffffffffffffffffffffffffffffffffffff1673ffffffffffffffffffffffffffffffffffffffff1614159050919050565b600033905090565b816004600083815260200190815260200160002060006101000a81548173ffffffffffffffffffffffffffffffffffffffff021916908373ffffffffffffffffffffffffffffffffffffffff160217905550808273ffffffffffffffffffffffffffffffffffffffff16611c6e836111b4565b73ffffffffffffffffffffffffffffffffffffffff167f8c5be1e5ebec7d5bd14f71427d1e84f3dd0314c0f7b2291e5b200ac8c7c3b92560405160405180910390a45050565b600081600001549050919050565b6000611ccd82611b87565b611d0c576040517f08c379a0000000000000000000000000000000000000000000000000000000008152600401611d0390613679565b60405180910390fd5b6000611d17836111b4565b90508073ffffffffffffffffffffffffffffffffffffffff168473ffffffffffffffffffffffffffffffffffffffff161480611d8657508373ffffffffffffffffffffffffffffffffffffffff16611d6e84610664565b73ffffffffffffffffffffffffffffffffffffffff16145b80611d975750611d968185611a89565b5b91505092915050565b8273ffffffffffffffffffffffffffffffffffffffff16611dc0826111b4565b73ffffffffffffffffffffffffffffffffffffffff1614611e16576040517f08c379a0000000000000000000000000000000000000000000000000000000008152600401611e0d906135f9565b60405180910390fd5b600073ffffffffffffffffffffffffffffffffffffffff168273ffffffffffffffffffffffffffffffffffffffff161415611e86576040517f08c379a0000000000000000000000000000000000000000000000000000000008152600401611e7d90613639565b60405180910390fd5b611e91838383612751565b611e9c600082611bfb565b6001600360008573ffffffffffffffffffffffffffffffffffffffff1673ffffffffffffffffffffffffffffffffffffffff1681526020019081526020016000206000828254611eec9190613a1e565b925050819055506001600360008473ffffffffffffffffffffffffffffffffffffffff1673ffffffffffffffffffffffffffffffffffffffff1681526020019081526020016000206000828254611f439190613997565b92505081905550816002600083815260200190815260200160002060006101000a81548173ffffffffffffffffffffffffffffffffffffffff021916908373ffffffffffffffffffffffffffffffffffffffff160217905550808273ffffffffffffffffffffffffffffffffffffffff168473ffffffffffffffffffffffffffffffffffffffff167fddf252ad1be2c89b69c2b068fc378daa952ba7f163c4a11628f55a4df523b3ef60405160405180910390a4612002838383612756565b505050565b6001816000016000828254019250508190555050565b600073ffffffffffffffffffffffffffffffffffffffff168273ffffffffffffffffffffffffffffffffffffffff16141561208d576040517f08c379a000000000000000000000000000000000000000000000000000000000815260040161208490613739565b60405180910390fd5b61209681611b87565b156120d6576040517f08c379a00000000000000000000000000000000000000000000000000000000081526004016120cd90613619565b60405180910390fd5b6120e260008383612751565b6001600360008473ffffffffffffffffffffffffffffffffffffffff1673ffffffffffffffffffffffffffffffffffffffff16815260200190815260200160002060008282546121329190613997565b92505081905550816002600083815260200190815260200160002060006101000a81548173ffffffffffffffffffffffffffffffffffffffff021916908373ffffffffffffffffffffffffffffffffffffffff160217905550808273ffffffffffffffffffffffffffffffffffffffff16600073ffffffffffffffffffffffffffffffffffffffff167fddf252ad1be2c89b69c2b068fc378daa952ba7f163c4a11628f55a4df523b3ef60405160405180910390a46121f360008383612756565b5050565b61220082611b87565b61223f576040517f08c379a0000000000000000000000000000000000000000000000000000000008152600401612236906136f9565b60405180910390fd5b80600660008481526020019081526020016000209080519060200190612266929190612b1f565b505050565b600081116122ae576040517f08c379a00000000000000000000000000000000000000000000000000000000081526004016122a590613859565b60405180910390fd5b60095434146122f2576040517f08c379a00000000000000000000000000000000000000000000000000000000081526004016122e9906137f9565b60405180910390fd5b6040518060a001604052808381526020013373ffffffffffffffffffffffffffffffffffffffff1681526020013073ffffffffffffffffffffffffffffffffffffffff16815260200182815260200160001515815250600b60008481526020019081526020016000206000820151816000015560208201518160010160006101000a81548173ffffffffffffffffffffffffffffffffffffffff021916908373ffffffffffffffffffffffffffffffffffffffff16021790555060408201518160020160006101000a81548173ffffffffffffffffffffffffffffffffffffffff021916908373ffffffffffffffffffffffffffffffffffffffff1602179055506060820151816003015560808201518160040160006101000a81548160ff02191690831515021790555090505061242b333084611da0565b817fb640004f1d14576d0c209e240cad0410e0d8c0c33a09375861fbadae2588a98d333084600060405161246294939291906134c9565b60405180910390a25050565b8173ffffffffffffffffffffffffffffffffffffffff168373ffffffffffffffffffffffffffffffffffffffff1614156124dd576040517f08c379a00000000000000000000000000000000000000000000000000000000081526004016124d490613659565b60405180910390fd5b80600560008573ffffffffffffffffffffffffffffffffffffffff1673ffffffffffffffffffffffffffffffffffffffff16815260200190815260200160002060008473ffffffffffffffffffffffffffffffffffffffff1673ffffffffffffffffffffffffffffffffffffffff16815260200190815260200160002060006101000a81548160ff0219169083151502179055508173ffffffffffffffffffffffffffffffffffffffff168373ffffffffffffffffffffffffffffffffffffffff167f17307eab39ab6107e8899845ad3d59bd9653f200f220920489ca2b5937696c31836040516125ce919061357c565b60405180910390a3505050565b6125e6848484611da0565b6125f28484848461275b565b612631576040517f08c379a0000000000000000000000000000000000000000000000000000000008152600401612628906135d9565b60405180910390fd5b50505050565b606060405180602001604052806000815250905090565b606061265982611b87565b612698576040517f08c379a000000000000000000000000000000000000000000000000000000000815260040161268f906137b9565b60405180910390fd5b60006126a2612637565b905060008151116126c257604051806020016040528060008152506126ed565b806126cc846128f2565b6040516020016126dd92919061348a565b6040516020818303038152906040525b915050919050565b60008160000154905060008111612741576040517f08c379a0000000000000000000000000000000000000000000000000000000008152600401612738906135b9565b60405180910390fd5b6001810382600001819055505050565b505050565b505050565b600061277c8473ffffffffffffffffffffffffffffffffffffffff16612a9f565b156128e5578373ffffffffffffffffffffffffffffffffffffffff1663150b7a026127a5611bf3565b8786866040518563ffffffff1660e01b81526004016127c7949392919061350e565b602060405180830381600087803b1580156127e157600080fd5b505af192505050801561281257506040513d601f19601f8201168201806040525081019061280f9190612ecb565b60015b612895573d8060008114612842576040519150601f19603f3d011682016040523d82523d6000602084013e612847565b606091505b5060008151141561288d576040517f08c379a0000000000000000000000000000000000000000000000000000000008152600401612884906135d9565b60405180910390fd5b805181602001fd5b63150b7a0260e01b7bffffffffffffffffffffffffffffffffffffffffffffffffffffffff1916817bffffffffffffffffffffffffffffffffffffffffffffffffffffffff1916149150506128ea565b600190505b949350505050565b6060600082141561293a576040518060400160405280600181526020017f30000000000000000000000000000000000000000000000000000000000000008152509050612a9a565b600082905060005b6000821461296c57808061295590613b7d565b915050600a8261296591906139ed565b9150612942565b60008167ffffffffffffffff8111156129ae577f4e487b7100000000000000000000000000000000000000000000000000000000600052604160045260246000fd5b6040519080825280601f01601f1916602001820160405280156129e05781602001600182028036833780820191505090505b5090505b60008514612a93576001826129f99190613a1e565b9150600a85612a089190613bc6565b6030612a149190613997565b60f81b818381518110612a50577f4e487b7100000000000000000000000000000000000000000000000000000000600052603260045260246000fd5b60200101907effffffffffffffffffffffffffffffffffffffffffffffffffffffffffffff1916908160001a905350600a85612a8c91906139ed565b94506129e4565b8093505050505b919050565b6000808273ffffffffffffffffffffffffffffffffffffffff163b119050919050565b6040518060a0016040528060008152602001600073ffffffffffffffffffffffffffffffffffffffff168152602001600073ffffffffffffffffffffffffffffffffffffffff168152602001600081526020016000151581525090565b828054612b2b90613b1a565b90600052602060002090601f016020900481019282612b4d5760008555612b94565b82601f10612b6657805160ff1916838001178555612b94565b82800160010185558215612b94579182015b82811115612b93578251825591602001919060010190612b78565b5b509050612ba19190612ba5565b5090565b5b80821115612bbe576000816000905550600101612ba6565b5090565b6000612bd5612bd0846138b9565b613894565b905082815260208101848484011115612bed57600080fd5b612bf8848285613ad8565b509392505050565b6000612c13612c0e846138ea565b613894565b905082815260208101848484011115612c2b57600080fd5b612c36848285613ad8565b509392505050565b600081359050612c4d816142d0565b92915050565b600081359050612c62816142e7565b92915050565b600081359050612c77816142fe565b92915050565b600081519050612c8c816142fe565b92915050565b600082601f830112612ca357600080fd5b8135612cb3848260208601612bc2565b91505092915050565b600082601f830112612ccd57600080fd5b8135612cdd848260208601612c00565b91505092915050565b600081359050612cf581614315565b92915050565b600060208284031215612d0d57600080fd5b6000612d1b84828501612c3e565b91505092915050565b60008060408385031215612d3757600080fd5b6000612d4585828601612c3e565b9250506020612d5685828601612c3e565b9150509250929050565b600080600060608486031215612d7557600080fd5b6000612d8386828701612c3e565b9350506020612d9486828701612c3e565b9250506040612da586828701612ce6565b9150509250925092565b60008060008060808587031215612dc557600080fd5b6000612dd387828801612c3e565b9450506020612de487828801612c3e565b9350506040612df587828801612ce6565b925050606085013567ffffffffffffffff811115612e1257600080fd5b612e1e87828801612c92565b91505092959194509250565b60008060408385031215612e3d57600080fd5b6000612e4b85828601612c3e565b9250506020612e5c85828601612c53565b9150509250929050565b60008060408385031215612e7957600080fd5b6000612e8785828601612c3e565b9250506020612e9885828601612ce6565b9150509250929050565b600060208284031215612eb457600080fd5b6000612ec284828501612c68565b91505092915050565b600060208284031215612edd57600080fd5b6000612eeb84828501612c7d565b91505092915050565b60008060408385031215612f0757600080fd5b600083013567ffffffffffffffff811115612f2157600080fd5b612f2d85828601612cbc565b9250506020612f3e85828601612ce6565b9150509250929050565b600060208284031215612f5a57600080fd5b6000612f6884828501612ce6565b91505092915050565b60008060408385031215612f8457600080fd5b6000612f9285828601612ce6565b9250506020612fa385828601612ce6565b9150509250929050565b6000612fb98383613404565b60a08301905092915050565b612fce81613a64565b82525050565b612fdd81613a52565b82525050565b6000612fee8261392b565b612ff88185613959565b93506130038361391b565b8060005b8381101561303457815161301b8882612fad565b97506130268361394c565b925050600181019050613007565b5085935050505092915050565b61304a81613a76565b82525050565b61305981613a76565b82525050565b600061306a82613936565b613074818561396a565b9350613084818560208601613ae7565b61308d81613cb3565b840191505092915050565b60006130a382613941565b6130ad818561397b565b93506130bd818560208601613ae7565b6130c681613cb3565b840191505092915050565b60006130dc82613941565b6130e6818561398c565b93506130f6818560208601613ae7565b80840191505092915050565b600061310f601b8361397b565b915061311a82613cc4565b602082019050919050565b600061313260328361397b565b915061313d82613ced565b604082019050919050565b600061315560258361397b565b915061316082613d3c565b604082019050919050565b6000613178601c8361397b565b915061318382613d8b565b602082019050919050565b600061319b60248361397b565b91506131a682613db4565b604082019050919050565b60006131be60198361397b565b91506131c982613e03565b602082019050919050565b60006131e1602c8361397b565b91506131ec82613e2c565b604082019050919050565b600061320460388361397b565b915061320f82613e7b565b604082019050919050565b6000613227602a8361397b565b915061323282613eca565b604082019050919050565b600061324a60298361397b565b915061325582613f19565b604082019050919050565b600061326d602e8361397b565b915061327882613f68565b604082019050919050565b600061329060408361397b565b915061329b82613fb7565b604082019050919050565b60006132b360208361397b565b91506132be82614006565b602082019050919050565b60006132d660318361397b565b91506132e18261402f565b604082019050919050565b60006132f9602a8361397b565b91506133048261407e565b604082019050919050565b600061331c602c8361397b565b9150613327826140cd565b604082019050919050565b600061333f602f8361397b565b915061334a8261411c565b604082019050919050565b600061336260218361397b565b915061336d8261416b565b604082019050919050565b600061338560248361397b565b9150613390826141ba565b604082019050919050565b60006133a860318361397b565b91506133b382614209565b604082019050919050565b60006133cb60308361397b565b91506133d682614258565b604082019050919050565b60006133ee601c8361397b565b91506133f9826142a7565b602082019050919050565b60a08201600082015161341a600085018261346c565b50602082015161342d6020850182612fc5565b5060408201516134406040850182612fc5565b506060820151613453606085018261346c565b5060808201516134666080850182613041565b50505050565b61347581613ace565b82525050565b61348481613ace565b82525050565b600061349682856130d1565b91506134a282846130d1565b91508190509392505050565b60006020820190506134c36000830184612fd4565b92915050565b60006080820190506134de6000830187612fd4565b6134eb6020830186612fd4565b6134f8604083018561347b565b6135056060830184613050565b95945050505050565b60006080820190506135236000830187612fd4565b6135306020830186612fd4565b61353d604083018561347b565b818103606083015261354f818461305f565b905095945050505050565b600060208201905081810360008301526135748184612fe3565b905092915050565b60006020820190506135916000830184613050565b92915050565b600060208201905081810360008301526135b18184613098565b905092915050565b600060208201905081810360008301526135d281613102565b9050919050565b600060208201905081810360008301526135f281613125565b9050919050565b6000602082019050818103600083015261361281613148565b9050919050565b600060208201905081810360008301526136328161316b565b9050919050565b600060208201905081810360008301526136528161318e565b9050919050565b60006020820190508181036000830152613672816131b1565b9050919050565b60006020820190508181036000830152613692816131d4565b9050919050565b600060208201905081810360008301526136b2816131f7565b9050919050565b600060208201905081810360008301526136d28161321a565b9050919050565b600060208201905081810360008301526136f28161323d565b9050919050565b6000602082019050818103600083015261371281613260565b9050919050565b6000602082019050818103600083015261373281613283565b9050919050565b60006020820190508181036000830152613752816132a6565b9050919050565b60006020820190508181036000830152613772816132c9565b9050919050565b60006020820190508181036000830152613792816132ec565b9050919050565b600060208201905081810360008301526137b28161330f565b9050919050565b600060208201905081810360008301526137d281613332565b9050919050565b600060208201905081810360008301526137f281613355565b9050919050565b6000602082019050818103600083015261381281613378565b9050919050565b600060208201905081810360008301526138328161339b565b9050919050565b60006020820190508181036000830152613852816133be565b9050919050565b60006020820190508181036000830152613872816133e1565b9050919050565b600060208201905061388e600083018461347b565b92915050565b600061389e6138af565b90506138aa8282613b4c565b919050565b6000604051905090565b600067ffffffffffffffff8211156138d4576138d3613c84565b5b6138dd82613cb3565b9050602081019050919050565b600067ffffffffffffffff82111561390557613904613c84565b5b61390e82613cb3565b9050602081019050919050565b6000819050602082019050919050565b600081519050919050565b600081519050919050565b600081519050919050565b6000602082019050919050565b600082825260208201905092915050565b600082825260208201905092915050565b600082825260208201905092915050565b600081905092915050565b60006139a282613ace565b91506139ad83613ace565b9250827fffffffffffffffffffffffffffffffffffffffffffffffffffffffffffffffff038211156139e2576139e1613bf7565b5b828201905092915050565b60006139f882613ace565b9150613a0383613ace565b925082613a1357613a12613c26565b5b828204905092915050565b6000613a2982613ace565b9150613a3483613ace565b925082821015613a4757613a46613bf7565b5b828203905092915050565b6000613a5d82613aae565b9050919050565b6000613a6f82613aae565b9050919050565b60008115159050919050565b60007fffffffff0000000000000000000000000000000000000000000000000000000082169050919050565b600073ffffffffffffffffffffffffffffffffffffffff82169050919050565b6000819050919050565b82818337600083830152505050565b60005b83811015613b05578082015181840152602081019050613aea565b83811115613b14576000848401525b50505050565b60006002820490506001821680613b3257607f821691505b60208210811415613b4657613b45613c55565b5b50919050565b613b5582613cb3565b810181811067ffffffffffffffff82111715613b7457613b73613c84565b5b80604052505050565b6000613b8882613ace565b91507fffffffffffffffffffffffffffffffffffffffffffffffffffffffffffffffff821415613bbb57613bba613bf7565b5b600182019050919050565b6000613bd182613ace565b9150613bdc83613ace565b925082613bec57613beb613c26565b5b828206905092915050565b7f4e487b7100000000000000000000000000000000000000000000000000000000600052601160045260246000fd5b7f4e487b7100000000000000000000000000000000000000000000000000000000600052601260045260246000fd5b7f4e487b7100000000000000000000000000000000000000000000000000000000600052602260045260246000fd5b7f4e487b7100000000000000000000000000000000000000000000000000000000600052604160045260246000fd5b6000601f19601f8301169050919050565b7f436f756e7465723a2064656372656d656e74206f766572666c6f770000000000600082015250565b7f4552433732313a207472616e7366657220746f206e6f6e20455243373231526560008201527f63656976657220696d706c656d656e7465720000000000000000000000000000602082015250565b7f4552433732313a207472616e736665722066726f6d20696e636f72726563742060008201527f6f776e6572000000000000000000000000000000000000000000000000000000602082015250565b7f4552433732313a20746f6b656e20616c7265616479206d696e74656400000000600082015250565b7f4552433732313a207472616e7366657220746f20746865207a65726f2061646460008201527f7265737300000000000000000000000000000000000000000000000000000000602082015250565b7f4552433732313a20617070726f766520746f2063616c6c657200000000000000600082015250565b7f4552433732313a206f70657261746f7220717565727920666f72206e6f6e657860008201527f697374656e7420746f6b656e0000000000000000000000000000000000000000602082015250565b7f4552433732313a20617070726f76652063616c6c6572206973206e6f74206f7760008201527f6e6572206e6f7220617070726f76656420666f7220616c6c0000000000000000602082015250565b7f4552433732313a2062616c616e636520717565727920666f7220746865207a6560008201527f726f206164647265737300000000000000000000000000000000000000000000602082015250565b7f4552433732313a206f776e657220717565727920666f72206e6f6e657869737460008201527f656e7420746f6b656e0000000000000000000000000000000000000000000000602082015250565b7f45524337323155524953746f726167653a2055524920736574206f66206e6f6e60008201527f6578697374656e7420746f6b656e000000000000000000000000000000000000602082015250565b7f506c65617365207375626d6974207468652061736b696e67207072696365206960008201527f6e206f7264657220746f20636f6d706c65746520746865207075726368617365602082015250565b7f4552433732313a206d696e7420746f20746865207a65726f2061646472657373600082015250565b7f45524337323155524953746f726167653a2055524920717565727920666f722060008201527f6e6f6e6578697374656e7420746f6b656e000000000000000000000000000000602082015250565b7f4f6e6c79206974656d206f776e65722063616e20706572666f726d207468697360008201527f206f7065726174696f6e00000000000000000000000000000000000000000000602082015250565b7f4552433732313a20617070726f76656420717565727920666f72206e6f6e657860008201527f697374656e7420746f6b656e0000000000000000000000000000000000000000602082015250565b7f4552433732314d657461646174613a2055524920717565727920666f72206e6f60008201527f6e6578697374656e7420746f6b656e0000000000000000000000000000000000602082015250565b7f4552433732313a20617070726f76616c20746f2063757272656e74206f776e6560008201527f7200000000000000000000000000000000000000000000000000000000000000602082015250565b7f5072696365206d75737420626520657175616c20746f206c697374696e67207060008201527f7269636500000000000000000000000000000000000000000000000000000000602082015250565b7f4552433732313a207472616e736665722063616c6c6572206973206e6f74206f60008201527f776e6572206e6f7220617070726f766564000000000000000000000000000000602082015250565b7f4f6e6c79206d61726b6574706c616365206f776e65722063616e20757064617460008201527f65206c697374696e672070726963652e00000000000000000000000000000000602082015250565b7f5072696365206d757374206265206174206c6561737420312077656900000000600082015250565b6142d981613a52565b81146142e457600080fd5b50565b6142f081613a76565b81146142fb57600080fd5b50565b61430781613a82565b811461431257600080fd5b50565b61431e81613ace565b811461432957600080fd5b5056fea2646970667358221220150220203cd8149c5dae61a5cee79cfd4cc3734c4e5fa39a62aa8990d2a9ece064736f6c63430008040033",
  "linkReferences": {},
  "deployedLinkReferences": {}
}